{
  "address": "0x8761b55aF5A703d5855F1865dB8fE4DD18E94c53",
  "abi": [
    {
      "inputs": [
        {
          "internalType": "contract INounsDescriptor",
          "name": "_descriptor",
          "type": "address"
        },
        {
          "internalType": "contract IENSReverseRecords",
          "name": "_reverseRecords",
          "type": "address"
        }
      ],
      "stateMutability": "nonpayable",
      "type": "constructor"
    },
    {
      "anonymous": false,
      "inputs": [
        {
          "indexed": true,
          "internalType": "address",
          "name": "owner",
          "type": "address"
        },
        {
          "indexed": true,
          "internalType": "address",
          "name": "approved",
          "type": "address"
        },
        {
          "indexed": true,
          "internalType": "uint256",
          "name": "tokenId",
          "type": "uint256"
        }
      ],
      "name": "Approval",
      "type": "event"
    },
    {
      "anonymous": false,
      "inputs": [
        {
          "indexed": true,
          "internalType": "address",
          "name": "owner",
          "type": "address"
        },
        {
          "indexed": true,
          "internalType": "address",
          "name": "operator",
          "type": "address"
        },
        {
          "indexed": false,
          "internalType": "bool",
          "name": "approved",
          "type": "bool"
        }
      ],
      "name": "ApprovalForAll",
      "type": "event"
    },
    {
      "anonymous": false,
      "inputs": [
        {
          "indexed": true,
          "internalType": "uint256",
          "name": "tokenId",
          "type": "uint256"
        },
        {
          "components": [
            {
              "internalType": "uint48",
              "name": "background",
              "type": "uint48"
            },
            {
              "internalType": "uint48",
              "name": "body",
              "type": "uint48"
            },
            {
              "internalType": "uint48",
              "name": "accessory",
              "type": "uint48"
            },
            {
              "internalType": "uint48",
              "name": "head",
              "type": "uint48"
            },
            {
              "internalType": "uint48",
              "name": "glasses",
              "type": "uint48"
            }
          ],
          "indexed": false,
          "internalType": "struct INounsSeeder.Seed",
          "name": "seed",
          "type": "tuple"
        }
      ],
      "name": "NounCreated",
      "type": "event"
    },
    {
      "anonymous": false,
      "inputs": [
        {
          "indexed": true,
          "internalType": "address",
          "name": "from",
          "type": "address"
        },
        {
          "indexed": true,
          "internalType": "address",
          "name": "to",
          "type": "address"
        },
        {
          "indexed": true,
          "internalType": "uint256",
          "name": "tokenId",
          "type": "uint256"
        }
      ],
      "name": "Transfer",
      "type": "event"
    },
    {
      "inputs": [
        {
          "internalType": "address",
          "name": "_address",
          "type": "address"
        }
      ],
      "name": "addressPreview",
      "outputs": [
        {
          "internalType": "string",
          "name": "",
          "type": "string"
        }
      ],
      "stateMutability": "view",
      "type": "function"
    },
    {
      "inputs": [
        {
          "internalType": "address",
          "name": "to",
          "type": "address"
        },
        {
          "internalType": "uint256",
          "name": "tokenId",
          "type": "uint256"
        }
      ],
      "name": "approve",
      "outputs": [],
      "stateMutability": "nonpayable",
      "type": "function"
    },
    {
      "inputs": [
        {
          "internalType": "address",
          "name": "owner",
          "type": "address"
        }
      ],
      "name": "balanceOf",
      "outputs": [
        {
          "internalType": "uint256",
          "name": "",
          "type": "uint256"
        }
      ],
      "stateMutability": "view",
      "type": "function"
    },
    {
      "inputs": [],
      "name": "claim",
      "outputs": [
        {
          "internalType": "uint256",
          "name": "",
          "type": "uint256"
        }
      ],
      "stateMutability": "nonpayable",
      "type": "function"
    },
    {
      "inputs": [
        {
          "internalType": "address",
          "name": "",
          "type": "address"
        }
      ],
      "name": "claimed",
      "outputs": [
        {
          "internalType": "bool",
          "name": "",
          "type": "bool"
        }
      ],
      "stateMutability": "view",
      "type": "function"
    },
    {
      "inputs": [
        {
          "internalType": "uint256",
          "name": "",
          "type": "uint256"
        }
      ],
      "name": "claimerOf",
      "outputs": [
        {
          "internalType": "address",
          "name": "",
          "type": "address"
        }
      ],
      "stateMutability": "view",
      "type": "function"
    },
    {
      "inputs": [],
      "name": "descriptor",
      "outputs": [
        {
          "internalType": "contract INounsDescriptor",
          "name": "",
          "type": "address"
        }
      ],
      "stateMutability": "view",
      "type": "function"
    },
    {
      "inputs": [
        {
          "internalType": "uint256",
          "name": "tokenId",
          "type": "uint256"
        }
      ],
      "name": "getApproved",
      "outputs": [
        {
          "internalType": "address",
          "name": "",
          "type": "address"
        }
      ],
      "stateMutability": "view",
      "type": "function"
    },
    {
      "inputs": [
        {
          "internalType": "address",
          "name": "_address",
          "type": "address"
        }
      ],
      "name": "getSeedInput",
      "outputs": [
        {
          "internalType": "uint256",
          "name": "",
          "type": "uint256"
        }
      ],
      "stateMutability": "pure",
      "type": "function"
    },
    {
      "inputs": [
        {
          "internalType": "address",
          "name": "owner",
          "type": "address"
        },
        {
          "internalType": "address",
          "name": "operator",
          "type": "address"
        }
      ],
      "name": "isApprovedForAll",
      "outputs": [
        {
          "internalType": "bool",
          "name": "",
          "type": "bool"
        }
      ],
      "stateMutability": "view",
      "type": "function"
    },
    {
      "inputs": [],
      "name": "name",
      "outputs": [
        {
          "internalType": "string",
          "name": "",
          "type": "string"
        }
      ],
      "stateMutability": "view",
      "type": "function"
    },
    {
      "inputs": [
        {
          "internalType": "uint256",
          "name": "tokenId",
          "type": "uint256"
        }
      ],
      "name": "ownerOf",
      "outputs": [
        {
          "internalType": "address",
          "name": "",
          "type": "address"
        }
      ],
      "stateMutability": "view",
      "type": "function"
    },
    {
      "inputs": [],
      "name": "reverseRecords",
      "outputs": [
        {
          "internalType": "contract IENSReverseRecords",
          "name": "",
          "type": "address"
        }
      ],
      "stateMutability": "view",
      "type": "function"
    },
    {
      "inputs": [
        {
          "internalType": "address",
          "name": "from",
          "type": "address"
        },
        {
          "internalType": "address",
          "name": "to",
          "type": "address"
        },
        {
          "internalType": "uint256",
          "name": "tokenId",
          "type": "uint256"
        }
      ],
      "name": "safeTransferFrom",
      "outputs": [],
      "stateMutability": "nonpayable",
      "type": "function"
    },
    {
      "inputs": [
        {
          "internalType": "address",
          "name": "from",
          "type": "address"
        },
        {
          "internalType": "address",
          "name": "to",
          "type": "address"
        },
        {
          "internalType": "uint256",
          "name": "tokenId",
          "type": "uint256"
        },
        {
          "internalType": "bytes",
          "name": "data",
          "type": "bytes"
        }
      ],
      "name": "safeTransferFrom",
      "outputs": [],
      "stateMutability": "nonpayable",
      "type": "function"
    },
    {
      "inputs": [
        {
          "internalType": "uint256",
          "name": "",
          "type": "uint256"
        }
      ],
      "name": "seeds",
      "outputs": [
        {
          "internalType": "uint48",
          "name": "background",
          "type": "uint48"
        },
        {
          "internalType": "uint48",
          "name": "body",
          "type": "uint48"
        },
        {
          "internalType": "uint48",
          "name": "accessory",
          "type": "uint48"
        },
        {
          "internalType": "uint48",
          "name": "head",
          "type": "uint48"
        },
        {
          "internalType": "uint48",
          "name": "glasses",
          "type": "uint48"
        }
      ],
      "stateMutability": "view",
      "type": "function"
    },
    {
      "inputs": [
        {
          "internalType": "address",
          "name": "operator",
          "type": "address"
        },
        {
          "internalType": "bool",
          "name": "approved",
          "type": "bool"
        }
      ],
      "name": "setApprovalForAll",
      "outputs": [],
      "stateMutability": "nonpayable",
      "type": "function"
    },
    {
      "inputs": [
        {
          "internalType": "bytes4",
          "name": "interfaceId",
          "type": "bytes4"
        }
      ],
      "name": "supportsInterface",
      "outputs": [
        {
          "internalType": "bool",
          "name": "",
          "type": "bool"
        }
      ],
      "stateMutability": "view",
      "type": "function"
    },
    {
      "inputs": [],
      "name": "symbol",
      "outputs": [
        {
          "internalType": "string",
          "name": "",
          "type": "string"
        }
      ],
      "stateMutability": "view",
      "type": "function"
    },
    {
      "inputs": [
        {
          "internalType": "uint256",
          "name": "_tokenId",
          "type": "uint256"
        }
      ],
      "name": "tokenURI",
      "outputs": [
        {
          "internalType": "string",
          "name": "",
          "type": "string"
        }
      ],
      "stateMutability": "view",
      "type": "function"
    },
    {
      "inputs": [
        {
          "internalType": "address",
          "name": "from",
          "type": "address"
        },
        {
          "internalType": "address",
          "name": "to",
          "type": "address"
        },
        {
          "internalType": "uint256",
          "name": "tokenId",
          "type": "uint256"
        }
      ],
      "name": "transferFrom",
      "outputs": [],
      "stateMutability": "nonpayable",
      "type": "function"
    }
  ],
  "transactionHash": "0xd730f037162e1c9602d2881ceb4600b5d595e0032b21a9e77157e668f35e28be",
  "args": [
    "0x0cfdb3ba1694c2bb2cfacb0339ad7b1ae5932b63",
    "0x3671aE578E63FdF66ad4F3E12CC0c0d71Ac7510C"
  ],
  "numDeployments": 1,
  "solcInputHash": "0e852192f3b31920496e0482502c73f8",
  "bytecode": "0x60806040526001600b553480156200001657600080fd5b50604051620043493803806200434983398181016040528101906200003c919062000244565b6040518060400160405280600f81526020017f53796e746865746963204e6f756e7300000000000000000000000000000000008152506040518060400160405280600581526020017f734e4f554e0000000000000000000000000000000000000000000000000000008152508160009080519060200190620000c092919062000166565b508060019080519060200190620000d992919062000166565b50505081600660006101000a81548173ffffffffffffffffffffffffffffffffffffffff021916908373ffffffffffffffffffffffffffffffffffffffff16021790555080600760006101000a81548173ffffffffffffffffffffffffffffffffffffffff021916908373ffffffffffffffffffffffffffffffffffffffff160217905550505062000385565b8280546200017490620002e7565b90600052602060002090601f016020900481019282620001985760008555620001e4565b82601f10620001b357805160ff1916838001178555620001e4565b82800160010185558215620001e4579182015b82811115620001e3578251825591602001919060010190620001c6565b5b509050620001f39190620001f7565b5090565b5b8082111562000212576000816000905550600101620001f8565b5090565b600081519050620002278162000351565b92915050565b6000815190506200023e816200036b565b92915050565b600080604083850312156200025e576200025d6200034c565b5b60006200026e858286016200022d565b9250506020620002818582860162000216565b9150509250929050565b60006200029882620002c7565b9050919050565b6000620002ac826200028b565b9050919050565b6000620002c0826200028b565b9050919050565b600073ffffffffffffffffffffffffffffffffffffffff82169050919050565b600060028204905060018216806200030057607f821691505b602082108114156200031757620003166200031d565b5b50919050565b7f4e487b7100000000000000000000000000000000000000000000000000000000600052602260045260246000fd5b600080fd5b6200035c816200029f565b81146200036857600080fd5b50565b6200037681620002b3565b81146200038257600080fd5b50565b613fb480620003956000396000f3fe608060405234801561001057600080fd5b50600436106101375760003560e01c80634e71d92d116100b8578063b88d4fde1161007c578063b88d4fde14610362578063c87b56dd1461037e578063c884ef83146103ae578063e9300f04146103de578063e985e9c51461040e578063f0503e801461043e57610137565b80634e71d92d146102aa5780636352211e146102c857806370a08231146102f857806395d89b4114610328578063a22cb4651461034657610137565b806323b872dd116100ff57806323b872dd146102065780632eb7452c14610222578063303e74df146102525780633991edb81461027057806342842e0e1461028e57610137565b806301ffc9a71461013c57806306fdde031461016c578063081812fc1461018a578063095ea7b3146101ba5780631ee304a0146101d6575b600080fd5b61015660048036038101906101519190612aac565b610472565b604051610163919061319c565b60405180910390f35b610174610554565b60405161018191906131ed565b60405180910390f35b6101a4600480360381019061019f9190612b4f565b6105e6565b6040516101b19190613113565b60405180910390f35b6101d460048036038101906101cf9190612a23565b61062c565b005b6101f060048036038101906101eb9190612b4f565b610744565b6040516101fd9190613113565b60405180910390f35b610220600480360381019061021b919061290d565b610777565b005b61023c600480360381019061023791906128a0565b6107d7565b60405161024991906131ed565b60405180910390f35b61025a6108a0565b60405161026791906131d2565b60405180910390f35b6102786108c6565b60405161028591906131b7565b60405180910390f35b6102a860048036038101906102a3919061290d565b6108ec565b005b6102b261090c565b6040516102bf919061342f565b60405180910390f35b6102e260048036038101906102dd9190612b4f565b610a70565b6040516102ef9190613113565b60405180910390f35b610312600480360381019061030d91906128a0565b610b22565b60405161031f919061342f565b60405180910390f35b610330610bda565b60405161033d91906131ed565b60405180910390f35b610360600480360381019061035b91906129e3565b610c6c565b005b61037c60048036038101906103779190612960565b610c82565b005b61039860048036038101906103939190612b4f565b610ce4565b6040516103a591906131ed565b60405180910390f35b6103c860048036038101906103c391906128a0565b610efc565b6040516103d5919061319c565b60405180910390f35b6103f860048036038101906103f391906128a0565b610f1c565b604051610405919061342f565b60405180910390f35b610428600480360381019061042391906128cd565b610f4f565b604051610435919061319c565b60405180910390f35b61045860048036038101906104539190612b4f565b610fe3565b60405161046995949392919061344a565b60405180910390f35b60007f80ac58cd000000000000000000000000000000000000000000000000000000007bffffffffffffffffffffffffffffffffffffffffffffffffffffffff1916827bffffffffffffffffffffffffffffffffffffffffffffffffffffffff1916148061053d57507f5b5e139f000000000000000000000000000000000000000000000000000000007bffffffffffffffffffffffffffffffffffffffffffffffffffffffff1916827bffffffffffffffffffffffffffffffffffffffffffffffffffffffff1916145b8061054d575061054c82611073565b5b9050919050565b6060600080546105639061382d565b80601f016020809104026020016040519081016040528092919081815260200182805461058f9061382d565b80156105dc5780601f106105b1576101008083540402835291602001916105dc565b820191906000526020600020905b8154815290600101906020018083116105bf57829003601f168201915b5050505050905090565b60006105f1826110dd565b6004600083815260200190815260200160002060009054906101000a900473ffffffffffffffffffffffffffffffffffffffff169050919050565b600061063782610a70565b90508073ffffffffffffffffffffffffffffffffffffffff168373ffffffffffffffffffffffffffffffffffffffff1614156106a8576040517f08c379a000000000000000000000000000000000000000000000000000000000815260040161069f906133d4565b60405180910390fd5b8073ffffffffffffffffffffffffffffffffffffffff166106c7611128565b73ffffffffffffffffffffffffffffffffffffffff1614806106f657506106f5816106f0611128565b610f4f565b5b610735576040517f08c379a000000000000000000000000000000000000000000000000000000000815260040161072c90613374565b60405180910390fd5b61073f8383611130565b505050565b600a6020528060005260406000206000915054906101000a900473ffffffffffffffffffffffffffffffffffffffff1681565b610788610782611128565b826111e9565b6107c7576040517f08c379a00000000000000000000000000000000000000000000000000000000081526004016107be906133f4565b60405180910390fd5b6107d283838361127e565b505050565b6060600660009054906101000a900473ffffffffffffffffffffffffffffffffffffffff1673ffffffffffffffffffffffffffffffffffffffff16632ea0430061082861082385610f1c565b6114e5565b6040518263ffffffff1660e01b81526004016108449190613414565b60006040518083038186803b15801561085c57600080fd5b505afa158015610870573d6000803e3d6000fd5b505050506040513d6000823e3d601f19601f820116820180604052508101906108999190612b06565b9050919050565b600660009054906101000a900473ffffffffffffffffffffffffffffffffffffffff1681565b600760009054906101000a900473ffffffffffffffffffffffffffffffffffffffff1681565b61090783838360405180602001604052806000815250610c82565b505050565b6000600960003373ffffffffffffffffffffffffffffffffffffffff1673ffffffffffffffffffffffffffffffffffffffff16815260200190815260200160002060009054906101000a900460ff161561099b576040517f08c379a000000000000000000000000000000000000000000000000000000000815260040161099290613334565b60405180910390fd5b6001600960003373ffffffffffffffffffffffffffffffffffffffff1673ffffffffffffffffffffffffffffffffffffffff16815260200190815260200160002060006101000a81548160ff0219169083151502179055506000600b6000815480929190610a0890613912565b91905055905033600a600083815260200190815260200160002060006101000a81548173ffffffffffffffffffffffffffffffffffffffff021916908373ffffffffffffffffffffffffffffffffffffffff160217905550610a6a33826118eb565b91505090565b6000806002600084815260200190815260200160002060009054906101000a900473ffffffffffffffffffffffffffffffffffffffff169050600073ffffffffffffffffffffffffffffffffffffffff168173ffffffffffffffffffffffffffffffffffffffff161415610b19576040517f08c379a0000000000000000000000000000000000000000000000000000000008152600401610b10906133b4565b60405180910390fd5b80915050919050565b60008073ffffffffffffffffffffffffffffffffffffffff168273ffffffffffffffffffffffffffffffffffffffff161415610b93576040517f08c379a0000000000000000000000000000000000000000000000000000000008152600401610b8a90613314565b60405180910390fd5b600360008373ffffffffffffffffffffffffffffffffffffffff1673ffffffffffffffffffffffffffffffffffffffff168152602001908152602001600020549050919050565b606060018054610be99061382d565b80601f0160208091040260200160405190810160405280929190818152602001828054610c159061382d565b8015610c625780601f10610c3757610100808354040283529160200191610c62565b820191906000526020600020905b815481529060010190602001808311610c4557829003601f168201915b5050505050905090565b610c7e610c77611128565b8383611b20565b5050565b610c93610c8d611128565b836111e9565b610cd2576040517f08c379a0000000000000000000000000000000000000000000000000000000008152600401610cc9906133f4565b60405180910390fd5b610cde84848484611c8d565b50505050565b6060610cef82611ce9565b610d2e576040517f08c379a0000000000000000000000000000000000000000000000000000000008152600401610d2590613354565b60405180910390fd5b6000610d3983611d55565b9050600081604051602001610d4e91906130ac565b60405160208183030381529060405290506000610d9d600a600087815260200190815260200160002060009054906101000a900473ffffffffffffffffffffffffffffffffffffffff16611eb6565b9050600080825114610daf5781610e02565b610e01600a600088815260200190815260200160002060009054906101000a900473ffffffffffffffffffffffffffffffffffffffff1673ffffffffffffffffffffffffffffffffffffffff16612028565b5b905060008482604051602001610e199291906130ce565b6040516020818303038152906040529050600660009054906101000a900473ffffffffffffffffffffffffffffffffffffffff1673ffffffffffffffffffffffffffffffffffffffff166387db11bd8583600860008c81526020019081526020016000206040518463ffffffff1660e01b8152600401610e9b9392919061320f565b60006040518083038186803b158015610eb357600080fd5b505afa158015610ec7573d6000803e3d6000fd5b505050506040513d6000823e3d601f19601f82011682018060405250810190610ef09190612b06565b95505050505050919050565b60096020528060005260406000206000915054906101000a900460ff1681565b600081604051602001610f2f9190613091565b6040516020818303038152906040528051906020012060001c9050919050565b6000600560008473ffffffffffffffffffffffffffffffffffffffff1673ffffffffffffffffffffffffffffffffffffffff16815260200190815260200160002060008373ffffffffffffffffffffffffffffffffffffffff1673ffffffffffffffffffffffffffffffffffffffff16815260200190815260200160002060009054906101000a900460ff16905092915050565b60086020528060005260406000206000915090508060000160009054906101000a900465ffffffffffff16908060000160069054906101000a900465ffffffffffff169080600001600c9054906101000a900465ffffffffffff16908060000160129054906101000a900465ffffffffffff16908060000160189054906101000a900465ffffffffffff16905085565b60007f01ffc9a7000000000000000000000000000000000000000000000000000000007bffffffffffffffffffffffffffffffffffffffffffffffffffffffff1916827bffffffffffffffffffffffffffffffffffffffffffffffffffffffff1916149050919050565b6110e681611ce9565b611125576040517f08c379a000000000000000000000000000000000000000000000000000000000815260040161111c906133b4565b60405180910390fd5b50565b600033905090565b816004600083815260200190815260200160002060006101000a81548173ffffffffffffffffffffffffffffffffffffffff021916908373ffffffffffffffffffffffffffffffffffffffff160217905550808273ffffffffffffffffffffffffffffffffffffffff166111a383610a70565b73ffffffffffffffffffffffffffffffffffffffff167f8c5be1e5ebec7d5bd14f71427d1e84f3dd0314c0f7b2291e5b200ac8c7c3b92560405160405180910390a45050565b6000806111f583610a70565b90508073ffffffffffffffffffffffffffffffffffffffff168473ffffffffffffffffffffffffffffffffffffffff16148061123757506112368185610f4f565b5b8061127557508373ffffffffffffffffffffffffffffffffffffffff1661125d846105e6565b73ffffffffffffffffffffffffffffffffffffffff16145b91505092915050565b8273ffffffffffffffffffffffffffffffffffffffff1661129e82610a70565b73ffffffffffffffffffffffffffffffffffffffff16146112f4576040517f08c379a00000000000000000000000000000000000000000000000000000000081526004016112eb90613294565b60405180910390fd5b600073ffffffffffffffffffffffffffffffffffffffff168273ffffffffffffffffffffffffffffffffffffffff161415611364576040517f08c379a000000000000000000000000000000000000000000000000000000000815260040161135b906132d4565b60405180910390fd5b61136f838383612055565b61137a600082611130565b6001600360008573ffffffffffffffffffffffffffffffffffffffff1673ffffffffffffffffffffffffffffffffffffffff16815260200190815260200160002060008282546113ca91906136ad565b925050819055506001600360008473ffffffffffffffffffffffffffffffffffffffff1673ffffffffffffffffffffffffffffffffffffffff168152602001908152602001600020600082825461142191906135cc565b92505081905550816002600083815260200190815260200160002060006101000a81548173ffffffffffffffffffffffffffffffffffffffff021916908373ffffffffffffffffffffffffffffffffffffffff160217905550808273ffffffffffffffffffffffffffffffffffffffff168473ffffffffffffffffffffffffffffffffffffffff167fddf252ad1be2c89b69c2b068fc378daa952ba7f163c4a11628f55a4df523b3ef60405160405180910390a46114e083838361205a565b505050565b6114ed61262f565b6000600660009054906101000a900473ffffffffffffffffffffffffffffffffffffffff1673ffffffffffffffffffffffffffffffffffffffff16634531c0a86040518163ffffffff1660e01b815260040160206040518083038186803b15801561155757600080fd5b505afa15801561156b573d6000803e3d6000fd5b505050506040513d601f19601f8201168201806040525081019061158f9190612b7c565b90506000600660009054906101000a900473ffffffffffffffffffffffffffffffffffffffff1673ffffffffffffffffffffffffffffffffffffffff1663eba818066040518163ffffffff1660e01b815260040160206040518083038186803b1580156115fb57600080fd5b505afa15801561160f573d6000803e3d6000fd5b505050506040513d601f19601f820116820180604052508101906116339190612b7c565b90506000600660009054906101000a900473ffffffffffffffffffffffffffffffffffffffff1673ffffffffffffffffffffffffffffffffffffffff16634daebac26040518163ffffffff1660e01b815260040160206040518083038186803b15801561169f57600080fd5b505afa1580156116b3573d6000803e3d6000fd5b505050506040513d601f19601f820116820180604052508101906116d79190612b7c565b90506000600660009054906101000a900473ffffffffffffffffffffffffffffffffffffffff1673ffffffffffffffffffffffffffffffffffffffff1663cc2aa0916040518163ffffffff1660e01b815260040160206040518083038186803b15801561174357600080fd5b505afa158015611757573d6000803e3d6000fd5b505050506040513d601f19601f8201168201806040525081019061177b9190612b7c565b90506000600660009054906101000a900473ffffffffffffffffffffffffffffffffffffffff1673ffffffffffffffffffffffffffffffffffffffff16634479cef26040518163ffffffff1660e01b815260040160206040518083038186803b1580156117e757600080fd5b505afa1580156117fb573d6000803e3d6000fd5b505050506040513d601f19601f8201168201806040525081019061181f9190612b7c565b90506040518060a00160405280868965ffffffffffff16611840919061397f565b65ffffffffffff1681526020018560308a901c65ffffffffffff16611865919061397f565b65ffffffffffff1681526020018460608a901c65ffffffffffff1661188a919061397f565b65ffffffffffff1681526020018360908a901c65ffffffffffff166118af919061397f565b65ffffffffffff1681526020018260c08a901c65ffffffffffff166118d4919061397f565b65ffffffffffff1681525095505050505050919050565b6000806118ff6118fa85610f1c565b6114e5565b6008600085815260200190815260200160002060008201518160000160006101000a81548165ffffffffffff021916908365ffffffffffff16021790555060208201518160000160066101000a81548165ffffffffffff021916908365ffffffffffff160217905550604082015181600001600c6101000a81548165ffffffffffff021916908365ffffffffffff16021790555060608201518160000160126101000a81548165ffffffffffff021916908365ffffffffffff16021790555060808201518160000160186101000a81548165ffffffffffff021916908365ffffffffffff16021790555090506040518060a00160405290816000820160009054906101000a900465ffffffffffff1665ffffffffffff1665ffffffffffff1681526020016000820160069054906101000a900465ffffffffffff1665ffffffffffff1665ffffffffffff16815260200160008201600c9054906101000a900465ffffffffffff1665ffffffffffff1665ffffffffffff1681526020016000820160129054906101000a900465ffffffffffff1665ffffffffffff1665ffffffffffff1681526020016000820160189054906101000a900465ffffffffffff1665ffffffffffff1665ffffffffffff16815250509050611ade848461205f565b827f1106ee9d020bfbb5ee34cf5535a5fbf024a011bd130078088cbf124ab309247882604051611b0e9190613414565b60405180910390a28291505092915050565b8173ffffffffffffffffffffffffffffffffffffffff168373ffffffffffffffffffffffffffffffffffffffff161415611b8f576040517f08c379a0000000000000000000000000000000000000000000000000000000008152600401611b86906132f4565b60405180910390fd5b80600560008573ffffffffffffffffffffffffffffffffffffffff1673ffffffffffffffffffffffffffffffffffffffff16815260200190815260200160002060008473ffffffffffffffffffffffffffffffffffffffff1673ffffffffffffffffffffffffffffffffffffffff16815260200190815260200160002060006101000a81548160ff0219169083151502179055508173ffffffffffffffffffffffffffffffffffffffff168373ffffffffffffffffffffffffffffffffffffffff167f17307eab39ab6107e8899845ad3d59bd9653f200f220920489ca2b5937696c3183604051611c80919061319c565b60405180910390a3505050565b611c9884848461127e565b611ca484848484612239565b611ce3576040517f08c379a0000000000000000000000000000000000000000000000000000000008152600401611cda90613274565b60405180910390fd5b50505050565b60008073ffffffffffffffffffffffffffffffffffffffff166002600084815260200190815260200160002060009054906101000a900473ffffffffffffffffffffffffffffffffffffffff1673ffffffffffffffffffffffffffffffffffffffff1614159050919050565b60606000821415611d9d576040518060400160405280600181526020017f30000000000000000000000000000000000000000000000000000000000000008152509050611eb1565b600082905060005b60008214611dcf578080611db890613912565b915050600a82611dc89190613622565b9150611da5565b60008167ffffffffffffffff811115611deb57611dea613a6c565b5b6040519080825280601f01601f191660200182016040528015611e1d5781602001600182028036833780820191505090505b5090505b60008514611eaa57600182611e3691906136ad565b9150600a85611e45919061397f565b6030611e5191906135cc565b60f81b818381518110611e6757611e66613a3d565b5b60200101907effffffffffffffffffffffffffffffffffffffffffffffffffffffffffffff1916908160001a905350600a85611ea39190613622565b9450611e21565b8093505050505b919050565b60606000600167ffffffffffffffff811115611ed557611ed4613a6c565b5b604051908082528060200260200182016040528015611f035781602001602082028036833780820191505090505b5090508281600081518110611f1b57611f1a613a3d565b5b602002602001019073ffffffffffffffffffffffffffffffffffffffff16908173ffffffffffffffffffffffffffffffffffffffff1681525050600760009054906101000a900473ffffffffffffffffffffffffffffffffffffffff1673ffffffffffffffffffffffffffffffffffffffff1663cbf8b66c826040518263ffffffff1660e01b8152600401611fb0919061317a565b60006040518083038186803b158015611fc857600080fd5b505afa158015611fdc573d6000803e3d6000fd5b505050506040513d6000823e3d601f19601f820116820180604052508101906120059190612a63565b60008151811061201857612017613a3d565b5b6020026020010151915050919050565b606061204e8273ffffffffffffffffffffffffffffffffffffffff16601460ff166123d0565b9050919050565b505050565b505050565b600073ffffffffffffffffffffffffffffffffffffffff168273ffffffffffffffffffffffffffffffffffffffff1614156120cf576040517f08c379a00000000000000000000000000000000000000000000000000000000081526004016120c690613394565b60405180910390fd5b6120d881611ce9565b15612118576040517f08c379a000000000000000000000000000000000000000000000000000000000815260040161210f906132b4565b60405180910390fd5b61212460008383612055565b6001600360008473ffffffffffffffffffffffffffffffffffffffff1673ffffffffffffffffffffffffffffffffffffffff168152602001908152602001600020600082825461217491906135cc565b92505081905550816002600083815260200190815260200160002060006101000a81548173ffffffffffffffffffffffffffffffffffffffff021916908373ffffffffffffffffffffffffffffffffffffffff160217905550808273ffffffffffffffffffffffffffffffffffffffff16600073ffffffffffffffffffffffffffffffffffffffff167fddf252ad1be2c89b69c2b068fc378daa952ba7f163c4a11628f55a4df523b3ef60405160405180910390a46122356000838361205a565b5050565b600061225a8473ffffffffffffffffffffffffffffffffffffffff1661260c565b156123c3578373ffffffffffffffffffffffffffffffffffffffff1663150b7a02612283611128565b8786866040518563ffffffff1660e01b81526004016122a5949392919061312e565b602060405180830381600087803b1580156122bf57600080fd5b505af19250505080156122f057506040513d601f19601f820116820180604052508101906122ed9190612ad9565b60015b612373573d8060008114612320576040519150601f19603f3d011682016040523d82523d6000602084013e612325565b606091505b5060008151141561236b576040517f08c379a000000000000000000000000000000000000000000000000000000000815260040161236290613274565b60405180910390fd5b805181602001fd5b63150b7a0260e01b7bffffffffffffffffffffffffffffffffffffffffffffffffffffffff1916817bffffffffffffffffffffffffffffffffffffffffffffffffffffffff1916149150506123c8565b600190505b949350505050565b6060600060028360026123e39190613653565b6123ed91906135cc565b67ffffffffffffffff81111561240657612405613a6c565b5b6040519080825280601f01601f1916602001820160405280156124385781602001600182028036833780820191505090505b5090507f3000000000000000000000000000000000000000000000000000000000000000816000815181106124705761246f613a3d565b5b60200101907effffffffffffffffffffffffffffffffffffffffffffffffffffffffffffff1916908160001a9053507f7800000000000000000000000000000000000000000000000000000000000000816001815181106124d4576124d3613a3d565b5b60200101907effffffffffffffffffffffffffffffffffffffffffffffffffffffffffffff1916908160001a905350600060018460026125149190613653565b61251e91906135cc565b90505b60018111156125be577f3031323334353637383961626364656600000000000000000000000000000000600f8616601081106125605761255f613a3d565b5b1a60f81b82828151811061257757612576613a3d565b5b60200101907effffffffffffffffffffffffffffffffffffffffffffffffffffffffffffff1916908160001a905350600485901c9450806125b790613803565b9050612521565b5060008414612602576040517f08c379a00000000000000000000000000000000000000000000000000000000081526004016125f990613254565b60405180910390fd5b8091505092915050565b6000808273ffffffffffffffffffffffffffffffffffffffff163b119050919050565b6040518060a00160405280600065ffffffffffff168152602001600065ffffffffffff168152602001600065ffffffffffff168152602001600065ffffffffffff168152602001600065ffffffffffff1681525090565b6000612699612694846134c2565b61349d565b905080838252602082019050828560208602820111156126bc576126bb613aa0565b5b60005b8581101561270a57815167ffffffffffffffff8111156126e2576126e1613a9b565b5b8086016126ef8982612848565b855260208501945060208401935050506001810190506126bf565b5050509392505050565b6000612727612722846134ee565b61349d565b90508281526020810184848401111561274357612742613aa5565b5b61274e8482856137c1565b509392505050565b60006127696127648461351f565b61349d565b90508281526020810184848401111561278557612784613aa5565b5b6127908482856137d0565b509392505050565b6000813590506127a781613f22565b92915050565b600082601f8301126127c2576127c1613a9b565b5b81516127d2848260208601612686565b91505092915050565b6000813590506127ea81613f39565b92915050565b6000813590506127ff81613f50565b92915050565b60008151905061281481613f50565b92915050565b600082601f83011261282f5761282e613a9b565b5b813561283f848260208601612714565b91505092915050565b600082601f83011261285d5761285c613a9b565b5b815161286d848260208601612756565b91505092915050565b60008135905061288581613f67565b92915050565b60008151905061289a81613f67565b92915050565b6000602082840312156128b6576128b5613aaf565b5b60006128c484828501612798565b91505092915050565b600080604083850312156128e4576128e3613aaf565b5b60006128f285828601612798565b925050602061290385828601612798565b9150509250929050565b60008060006060848603121561292657612925613aaf565b5b600061293486828701612798565b935050602061294586828701612798565b925050604061295686828701612876565b9150509250925092565b6000806000806080858703121561297a57612979613aaf565b5b600061298887828801612798565b945050602061299987828801612798565b93505060406129aa87828801612876565b925050606085013567ffffffffffffffff8111156129cb576129ca613aaa565b5b6129d78782880161281a565b91505092959194509250565b600080604083850312156129fa576129f9613aaf565b5b6000612a0885828601612798565b9250506020612a19858286016127db565b9150509250929050565b60008060408385031215612a3a57612a39613aaf565b5b6000612a4885828601612798565b9250506020612a5985828601612876565b9150509250929050565b600060208284031215612a7957612a78613aaf565b5b600082015167ffffffffffffffff811115612a9757612a96613aaa565b5b612aa3848285016127ad565b91505092915050565b600060208284031215612ac257612ac1613aaf565b5b6000612ad0848285016127f0565b91505092915050565b600060208284031215612aef57612aee613aaf565b5b6000612afd84828501612805565b91505092915050565b600060208284031215612b1c57612b1b613aaf565b5b600082015167ffffffffffffffff811115612b3a57612b39613aaa565b5b612b4684828501612848565b91505092915050565b600060208284031215612b6557612b64613aaf565b5b6000612b7384828501612876565b91505092915050565b600060208284031215612b9257612b91613aaf565b5b6000612ba08482850161288b565b91505092915050565b6000612bb58383612bc1565b60208301905092915050565b612bca816136f3565b82525050565b612bd9816136f3565b82525050565b612bf0612beb826136f3565b61395b565b82525050565b6000612c0182613560565b612c0b818561358e565b9350612c1683613550565b8060005b83811015612c47578151612c2e8882612ba9565b9750612c3983613581565b925050600181019050612c1a565b5085935050505092915050565b612c5d81613705565b82525050565b6000612c6e8261356b565b612c78818561359f565b9350612c888185602086016137d0565b612c9181613ab4565b840191505092915050565b612ca581613779565b82525050565b612cb48161379d565b82525050565b6000612cc582613576565b612ccf81856135b0565b9350612cdf8185602086016137d0565b612ce881613ab4565b840191505092915050565b6000612cfe82613576565b612d0881856135c1565b9350612d188185602086016137d0565b80840191505092915050565b6000612d316020836135b0565b9150612d3c82613b13565b602082019050919050565b6000612d546032836135b0565b9150612d5f82613b3c565b604082019050919050565b6000612d776025836135b0565b9150612d8282613b8b565b604082019050919050565b6000612d9a601c836135b0565b9150612da582613bda565b602082019050919050565b6000612dbd6024836135b0565b9150612dc882613c03565b604082019050919050565b6000612de06019836135b0565b9150612deb82613c52565b602082019050919050565b6000612e036029836135b0565b9150612e0e82613c7b565b604082019050919050565b6000612e266014836135b0565b9150612e3182613cca565b602082019050919050565b6000612e49602b836135b0565b9150612e5482613cf3565b604082019050919050565b6000612e6c603e836135b0565b9150612e7782613d42565b604082019050919050565b6000612e8f6020836135b0565b9150612e9a82613d91565b602082019050919050565b6000612eb2600f836135c1565b9150612ebd82613dba565b600f82019050919050565b6000612ed56018836135b0565b9150612ee082613de3565b602082019050919050565b6000612ef86021836135b0565b9150612f0382613e0c565b604082019050919050565b6000612f1b6015836135c1565b9150612f2682613e5b565b601582019050919050565b6000612f3e602e836135b0565b9150612f4982613e84565b604082019050919050565b6000612f616028836135c1565b9150612f6c82613ed3565b602882019050919050565b60a082016000820151612f8d6000850182613073565b506020820151612fa06020850182613073565b506040820151612fb36040850182613073565b506060820151612fc66060850182613073565b506080820151612fd96080850182613073565b50505050565b60a082016000808301549050612ff48161385f565b6130016000860182613073565b5061300b816138c7565b6130186020860182613073565b5061302281613879565b61302f6040860182613073565b5061303981613893565b6130466060860182613073565b50613050816138ad565b61305d6080860182613073565b5050505050565b61306d8161375d565b82525050565b61307c81613767565b82525050565b61308b81613767565b82525050565b600061309d8284612bdf565b60148201915081905092915050565b60006130b782612ea5565b91506130c38284612cf3565b915081905092915050565b60006130d982612ea5565b91506130e58285612cf3565b91506130f082612f0e565b91506130fc8284612cf3565b915061310782612f54565b91508190509392505050565b60006020820190506131286000830184612bd0565b92915050565b60006080820190506131436000830187612bd0565b6131506020830186612bd0565b61315d6040830185613064565b818103606083015261316f8184612c63565b905095945050505050565b600060208201905081810360008301526131948184612bf6565b905092915050565b60006020820190506131b16000830184612c54565b92915050565b60006020820190506131cc6000830184612c9c565b92915050565b60006020820190506131e76000830184612cab565b92915050565b600060208201905081810360008301526132078184612cba565b905092915050565b600060e08201905081810360008301526132298186612cba565b9050818103602083015261323d8185612cba565b905061324c6040830184612fdf565b949350505050565b6000602082019050818103600083015261326d81612d24565b9050919050565b6000602082019050818103600083015261328d81612d47565b9050919050565b600060208201905081810360008301526132ad81612d6a565b9050919050565b600060208201905081810360008301526132cd81612d8d565b9050919050565b600060208201905081810360008301526132ed81612db0565b9050919050565b6000602082019050818103600083015261330d81612dd3565b9050919050565b6000602082019050818103600083015261332d81612df6565b9050919050565b6000602082019050818103600083015261334d81612e19565b9050919050565b6000602082019050818103600083015261336d81612e3c565b9050919050565b6000602082019050818103600083015261338d81612e5f565b9050919050565b600060208201905081810360008301526133ad81612e82565b9050919050565b600060208201905081810360008301526133cd81612ec8565b9050919050565b600060208201905081810360008301526133ed81612eeb565b9050919050565b6000602082019050818103600083015261340d81612f31565b9050919050565b600060a0820190506134296000830184612f77565b92915050565b60006020820190506134446000830184613064565b92915050565b600060a08201905061345f6000830188613082565b61346c6020830187613082565b6134796040830186613082565b6134866060830185613082565b6134936080830184613082565b9695505050505050565b60006134a76134b8565b90506134b382826138e1565b919050565b6000604051905090565b600067ffffffffffffffff8211156134dd576134dc613a6c565b5b602082029050602081019050919050565b600067ffffffffffffffff82111561350957613508613a6c565b5b61351282613ab4565b9050602081019050919050565b600067ffffffffffffffff82111561353a57613539613a6c565b5b61354382613ab4565b9050602081019050919050565b6000819050602082019050919050565b600081519050919050565b600081519050919050565b600081519050919050565b6000602082019050919050565b600082825260208201905092915050565b600082825260208201905092915050565b600082825260208201905092915050565b600081905092915050565b60006135d78261375d565b91506135e28361375d565b9250827fffffffffffffffffffffffffffffffffffffffffffffffffffffffffffffffff03821115613617576136166139b0565b5b828201905092915050565b600061362d8261375d565b91506136388361375d565b925082613648576136476139df565b5b828204905092915050565b600061365e8261375d565b91506136698361375d565b9250817fffffffffffffffffffffffffffffffffffffffffffffffffffffffffffffffff04831182151516156136a2576136a16139b0565b5b828202905092915050565b60006136b88261375d565b91506136c38361375d565b9250828210156136d6576136d56139b0565b5b828203905092915050565b600065ffffffffffff82169050919050565b60006136fe8261373d565b9050919050565b60008115159050919050565b60007fffffffff0000000000000000000000000000000000000000000000000000000082169050919050565b600073ffffffffffffffffffffffffffffffffffffffff82169050919050565b6000819050919050565b600065ffffffffffff82169050919050565b60006137848261378b565b9050919050565b60006137968261373d565b9050919050565b60006137a8826137af565b9050919050565b60006137ba8261373d565b9050919050565b82818337600083830152505050565b60005b838110156137ee5780820151818401526020810190506137d3565b838111156137fd576000848401525b50505050565b600061380e8261375d565b91506000821415613822576138216139b0565b5b600182039050919050565b6000600282049050600182168061384557607f821691505b6020821081141561385957613858613a0e565b5b50919050565b600061387261386d83613ad2565b6136e1565b9050919050565b600061388c61388783613b06565b6136e1565b9050919050565b60006138a66138a183613adf565b6136e1565b9050919050565b60006138c06138bb83613aec565b6136e1565b9050919050565b60006138da6138d583613af9565b6136e1565b9050919050565b6138ea82613ab4565b810181811067ffffffffffffffff8211171561390957613908613a6c565b5b80604052505050565b600061391d8261375d565b91507fffffffffffffffffffffffffffffffffffffffffffffffffffffffffffffffff8214156139505761394f6139b0565b5b600182019050919050565b60006139668261396d565b9050919050565b600061397882613ac5565b9050919050565b600061398a8261375d565b91506139958361375d565b9250826139a5576139a46139df565b5b828206905092915050565b7f4e487b7100000000000000000000000000000000000000000000000000000000600052601160045260246000fd5b7f4e487b7100000000000000000000000000000000000000000000000000000000600052601260045260246000fd5b7f4e487b7100000000000000000000000000000000000000000000000000000000600052602260045260246000fd5b7f4e487b7100000000000000000000000000000000000000000000000000000000600052603260045260246000fd5b7f4e487b7100000000000000000000000000000000000000000000000000000000600052604160045260246000fd5b600080fd5b600080fd5b600080fd5b600080fd5b600080fd5b6000601f19601f8301169050919050565b60008160601b9050919050565b60008160001c9050919050565b60008160901c9050919050565b60008160c01c9050919050565b60008160301c9050919050565b60008160601c9050919050565b7f537472696e67733a20686578206c656e67746820696e73756666696369656e74600082015250565b7f4552433732313a207472616e7366657220746f206e6f6e20455243373231526560008201527f63656976657220696d706c656d656e7465720000000000000000000000000000602082015250565b7f4552433732313a207472616e736665722066726f6d20696e636f72726563742060008201527f6f776e6572000000000000000000000000000000000000000000000000000000602082015250565b7f4552433732313a20746f6b656e20616c7265616479206d696e74656400000000600082015250565b7f4552433732313a207472616e7366657220746f20746865207a65726f2061646460008201527f7265737300000000000000000000000000000000000000000000000000000000602082015250565b7f4552433732313a20617070726f766520746f2063616c6c657200000000000000600082015250565b7f4552433732313a2061646472657373207a65726f206973206e6f74206120766160008201527f6c6964206f776e65720000000000000000000000000000000000000000000000602082015250565b7f4e6f756e20616c726561647920636c61696d6564000000000000000000000000600082015250565b7f4e6f756e73546f6b656e3a2055524920717565727920666f72206e6f6e65786960008201527f7374656e7420746f6b656e000000000000000000000000000000000000000000602082015250565b7f4552433732313a20617070726f76652063616c6c6572206973206e6f7420746f60008201527f6b656e206f776e6572206e6f7220617070726f76656420666f7220616c6c0000602082015250565b7f4552433732313a206d696e7420746f20746865207a65726f2061646472657373600082015250565b7f53796e746865746963204e6f756e200000000000000000000000000000000000600082015250565b7f4552433732313a20696e76616c696420746f6b656e2049440000000000000000600082015250565b7f4552433732313a20617070726f76616c20746f2063757272656e74206f776e6560008201527f7200000000000000000000000000000000000000000000000000000000000000602082015250565b7f20636c61696d656420627920616464726573732c200000000000000000000000600082015250565b7f4552433732313a2063616c6c6572206973206e6f7420746f6b656e206f776e6560008201527f72206e6f7220617070726f766564000000000000000000000000000000000000602082015250565b7f2c2069732061206d656d626572206f66207468652053796e746865746963204e60008201527f6f756e732044414f000000000000000000000000000000000000000000000000602082015250565b613f2b816136f3565b8114613f3657600080fd5b50565b613f4281613705565b8114613f4d57600080fd5b50565b613f5981613711565b8114613f6457600080fd5b50565b613f708161375d565b8114613f7b57600080fd5b5056fea264697066735822122001b8a07b9cd517c2c0047c4aff922000aaf3b7c9bec0ca0bbed92cf9ff931a7464736f6c63430008060033",
  "devdoc": {
    "kind": "dev",
    "methods": {
      "approve(address,uint256)": {
        "details": "See {IERC721-approve}."
      },
      "balanceOf(address)": {
        "details": "See {IERC721-balanceOf}."
      },
      "claim()": {
        "details": "Call _mintTo with the to address."
      },
      "getApproved(uint256)": {
        "details": "See {IERC721-getApproved}."
      },
      "isApprovedForAll(address,address)": {
        "details": "See {IERC721-isApprovedForAll}."
      },
      "name()": {
        "details": "See {IERC721Metadata-name}."
      },
      "ownerOf(uint256)": {
        "details": "See {IERC721-ownerOf}."
      },
      "safeTransferFrom(address,address,uint256)": {
        "details": "See {IERC721-safeTransferFrom}."
      },
      "safeTransferFrom(address,address,uint256,bytes)": {
        "details": "See {IERC721-safeTransferFrom}."
      },
      "setApprovalForAll(address,bool)": {
        "details": "See {IERC721-setApprovalForAll}."
      },
      "supportsInterface(bytes4)": {
        "details": "See {IERC165-supportsInterface}."
      },
      "symbol()": {
        "details": "See {IERC721Metadata-symbol}."
      },
      "tokenURI(uint256)": {
        "details": "See {IERC721Metadata-tokenURI}."
      },
      "transferFrom(address,address,uint256)": {
        "details": "See {IERC721-transferFrom}."
      }
    },
    "version": 1
  },
  "userdoc": {
    "kind": "user",
    "methods": {
      "addressPreview(address)": {
        "notice": "Given an address, construct a base64 encoded SVG image."
      },
      "claim()": {
        "notice": "Mint a Noun to the minter."
      },
      "getSeedInput(address)": {
        "notice": "Given an address, generate a unique input to be used with the generateSeed function."
      },
      "tokenURI(uint256)": {
        "notice": "A distinct Uniform Resource Identifier (URI) for a given asset."
      }
    },
    "version": 1
  },
  "storageLayout": {
    "storage": [
      {
        "astId": 25,
        "contract": "contracts/SyntheticNouns.sol:SyntheticNouns",
        "label": "_name",
        "offset": 0,
        "slot": "0",
        "type": "t_string_storage"
      },
      {
        "astId": 27,
        "contract": "contracts/SyntheticNouns.sol:SyntheticNouns",
        "label": "_symbol",
        "offset": 0,
        "slot": "1",
        "type": "t_string_storage"
      },
      {
        "astId": 31,
        "contract": "contracts/SyntheticNouns.sol:SyntheticNouns",
        "label": "_owners",
        "offset": 0,
        "slot": "2",
        "type": "t_mapping(t_uint256,t_address)"
      },
      {
        "astId": 35,
        "contract": "contracts/SyntheticNouns.sol:SyntheticNouns",
        "label": "_balances",
        "offset": 0,
        "slot": "3",
        "type": "t_mapping(t_address,t_uint256)"
      },
      {
        "astId": 39,
        "contract": "contracts/SyntheticNouns.sol:SyntheticNouns",
        "label": "_tokenApprovals",
        "offset": 0,
        "slot": "4",
        "type": "t_mapping(t_uint256,t_address)"
      },
      {
        "astId": 45,
        "contract": "contracts/SyntheticNouns.sol:SyntheticNouns",
        "label": "_operatorApprovals",
        "offset": 0,
        "slot": "5",
        "type": "t_mapping(t_address,t_mapping(t_address,t_bool))"
      },
      {
        "astId": 1636,
        "contract": "contracts/SyntheticNouns.sol:SyntheticNouns",
        "label": "descriptor",
        "offset": 0,
        "slot": "6",
        "type": "t_contract(INounsDescriptor)2240"
      },
      {
        "astId": 1639,
        "contract": "contracts/SyntheticNouns.sol:SyntheticNouns",
        "label": "reverseRecords",
        "offset": 0,
        "slot": "7",
        "type": "t_contract(IENSReverseRecords)2020"
      },
      {
        "astId": 1644,
        "contract": "contracts/SyntheticNouns.sol:SyntheticNouns",
        "label": "seeds",
        "offset": 0,
        "slot": "8",
        "type": "t_mapping(t_uint256,t_struct(Seed)2255_storage)"
      },
      {
        "astId": 1648,
        "contract": "contracts/SyntheticNouns.sol:SyntheticNouns",
        "label": "claimed",
        "offset": 0,
        "slot": "9",
        "type": "t_mapping(t_address,t_bool)"
      },
      {
        "astId": 1652,
        "contract": "contracts/SyntheticNouns.sol:SyntheticNouns",
        "label": "claimerOf",
        "offset": 0,
        "slot": "10",
        "type": "t_mapping(t_uint256,t_address)"
      },
      {
        "astId": 1655,
        "contract": "contracts/SyntheticNouns.sol:SyntheticNouns",
        "label": "_currentNounId",
        "offset": 0,
        "slot": "11",
        "type": "t_uint256"
      }
    ],
    "types": {
      "t_address": {
        "encoding": "inplace",
        "label": "address",
        "numberOfBytes": "20"
      },
      "t_bool": {
        "encoding": "inplace",
        "label": "bool",
        "numberOfBytes": "1"
      },
      "t_contract(IENSReverseRecords)2020": {
        "encoding": "inplace",
        "label": "contract IENSReverseRecords",
        "numberOfBytes": "20"
      },
      "t_contract(INounsDescriptor)2240": {
        "encoding": "inplace",
        "label": "contract INounsDescriptor",
        "numberOfBytes": "20"
      },
      "t_mapping(t_address,t_bool)": {
        "encoding": "mapping",
        "key": "t_address",
        "label": "mapping(address => bool)",
        "numberOfBytes": "32",
        "value": "t_bool"
      },
      "t_mapping(t_address,t_mapping(t_address,t_bool))": {
        "encoding": "mapping",
        "key": "t_address",
        "label": "mapping(address => mapping(address => bool))",
        "numberOfBytes": "32",
        "value": "t_mapping(t_address,t_bool)"
      },
      "t_mapping(t_address,t_uint256)": {
        "encoding": "mapping",
        "key": "t_address",
        "label": "mapping(address => uint256)",
        "numberOfBytes": "32",
        "value": "t_uint256"
      },
      "t_mapping(t_uint256,t_address)": {
        "encoding": "mapping",
        "key": "t_uint256",
        "label": "mapping(uint256 => address)",
        "numberOfBytes": "32",
        "value": "t_address"
      },
      "t_mapping(t_uint256,t_struct(Seed)2255_storage)": {
        "encoding": "mapping",
        "key": "t_uint256",
        "label": "mapping(uint256 => struct INounsSeeder.Seed)",
        "numberOfBytes": "32",
        "value": "t_struct(Seed)2255_storage"
      },
      "t_string_storage": {
        "encoding": "bytes",
        "label": "string",
        "numberOfBytes": "32"
      },
      "t_struct(Seed)2255_storage": {
        "encoding": "inplace",
        "label": "struct INounsSeeder.Seed",
        "members": [
          {
            "astId": 2246,
            "contract": "contracts/SyntheticNouns.sol:SyntheticNouns",
            "label": "background",
            "offset": 0,
            "slot": "0",
            "type": "t_uint48"
          },
          {
            "astId": 2248,
            "contract": "contracts/SyntheticNouns.sol:SyntheticNouns",
            "label": "body",
            "offset": 6,
            "slot": "0",
            "type": "t_uint48"
          },
          {
            "astId": 2250,
            "contract": "contracts/SyntheticNouns.sol:SyntheticNouns",
            "label": "accessory",
            "offset": 12,
            "slot": "0",
            "type": "t_uint48"
          },
          {
            "astId": 2252,
            "contract": "contracts/SyntheticNouns.sol:SyntheticNouns",
            "label": "head",
            "offset": 18,
            "slot": "0",
            "type": "t_uint48"
          },
          {
            "astId": 2254,
            "contract": "contracts/SyntheticNouns.sol:SyntheticNouns",
            "label": "glasses",
            "offset": 24,
            "slot": "0",
            "type": "t_uint48"
          }
        ],
        "numberOfBytes": "32"
      },
      "t_uint256": {
        "encoding": "inplace",
        "label": "uint256",
        "numberOfBytes": "32"
      },
      "t_uint48": {
        "encoding": "inplace",
        "label": "uint48",
        "numberOfBytes": "6"
      }
    }
  }
}